{
  "_format": "hh-sol-artifact-1",
  "contractName": "NftCollection",
  "sourceName": "contracts/NftCollection.sol",
  "abi": [
    {
      "inputs": [
        {
          "internalType": "string",
          "name": "name_",
          "type": "string"
        },
        {
          "internalType": "string",
          "name": "symbol_",
          "type": "string"
        },
        {
          "internalType": "uint256",
          "name": "maxSupply_",
          "type": "uint256"
        },
        {
          "internalType": "string",
          "name": "baseURI_",
          "type": "string"
        }
      ],
      "stateMutability": "nonpayable",
      "type": "constructor"
    },
    {
      "inputs": [
        {
          "internalType": "address",
          "name": "sender",
          "type": "address"
        },
        {
          "internalType": "uint256",
          "name": "tokenId",
          "type": "uint256"
        },
        {
          "internalType": "address",
          "name": "owner",
          "type": "address"
        }
      ],
      "name": "ERC721IncorrectOwner",
      "type": "error"
    },
    {
      "inputs": [
        {
          "internalType": "address",
          "name": "operator",
          "type": "address"
        },
        {
          "internalType": "uint256",
          "name": "tokenId",
          "type": "uint256"
        }
      ],
      "name": "ERC721InsufficientApproval",
      "type": "error"
    },
    {
      "inputs": [
        {
          "internalType": "address",
          "name": "approver",
          "type": "address"
        }
      ],
      "name": "ERC721InvalidApprover",
      "type": "error"
    },
    {
      "inputs": [
        {
          "internalType": "address",
          "name": "operator",
          "type": "address"
        }
      ],
      "name": "ERC721InvalidOperator",
      "type": "error"
    },
    {
      "inputs": [
        {
          "internalType": "address",
          "name": "owner",
          "type": "address"
        }
      ],
      "name": "ERC721InvalidOwner",
      "type": "error"
    },
    {
      "inputs": [
        {
          "internalType": "address",
          "name": "receiver",
          "type": "address"
        }
      ],
      "name": "ERC721InvalidReceiver",
      "type": "error"
    },
    {
      "inputs": [
        {
          "internalType": "address",
          "name": "sender",
          "type": "address"
        }
      ],
      "name": "ERC721InvalidSender",
      "type": "error"
    },
    {
      "inputs": [
        {
          "internalType": "uint256",
          "name": "tokenId",
          "type": "uint256"
        }
      ],
      "name": "ERC721NonexistentToken",
      "type": "error"
    },
    {
      "inputs": [],
      "name": "InvalidTokenId",
      "type": "error"
    },
    {
      "inputs": [],
      "name": "MaxSupplyReached",
      "type": "error"
    },
    {
      "inputs": [],
      "name": "MintingPausedError",
      "type": "error"
    },
    {
      "inputs": [],
      "name": "NotTokenOwnerOrApproved",
      "type": "error"
    },
    {
      "inputs": [
        {
          "internalType": "address",
          "name": "owner",
          "type": "address"
        }
      ],
      "name": "OwnableInvalidOwner",
      "type": "error"
    },
    {
      "inputs": [
        {
          "internalType": "address",
          "name": "account",
          "type": "address"
        }
      ],
      "name": "OwnableUnauthorizedAccount",
      "type": "error"
    },
    {
      "anonymous": false,
      "inputs": [
        {
          "indexed": true,
          "internalType": "address",
          "name": "owner",
          "type": "address"
        },
        {
          "indexed": true,
          "internalType": "address",
          "name": "approved",
          "type": "address"
        },
        {
          "indexed": true,
          "internalType": "uint256",
          "name": "tokenId",
          "type": "uint256"
        }
      ],
      "name": "Approval",
      "type": "event"
    },
    {
      "anonymous": false,
      "inputs": [
        {
          "indexed": true,
          "internalType": "address",
          "name": "owner",
          "type": "address"
        },
        {
          "indexed": true,
          "internalType": "address",
          "name": "operator",
          "type": "address"
        },
        {
          "indexed": false,
          "internalType": "bool",
          "name": "approved",
          "type": "bool"
        }
      ],
      "name": "ApprovalForAll",
      "type": "event"
    },
    {
      "anonymous": false,
      "inputs": [
        {
          "indexed": false,
          "internalType": "string",
          "name": "newBaseURI",
          "type": "string"
        }
      ],
      "name": "BaseURIUpdated",
      "type": "event"
    },
    {
      "anonymous": false,
      "inputs": [
        {
          "indexed": true,
          "internalType": "address",
          "name": "admin",
          "type": "address"
        }
      ],
      "name": "MintingPaused",
      "type": "event"
    },
    {
      "anonymous": false,
      "inputs": [
        {
          "indexed": true,
          "internalType": "address",
          "name": "admin",
          "type": "address"
        }
      ],
      "name": "MintingUnpaused",
      "type": "event"
    },
    {
      "anonymous": false,
      "inputs": [
        {
          "indexed": true,
          "internalType": "address",
          "name": "previousOwner",
          "type": "address"
        },
        {
          "indexed": true,
          "internalType": "address",
          "name": "newOwner",
          "type": "address"
        }
      ],
      "name": "OwnershipTransferred",
      "type": "event"
    },
    {
      "anonymous": false,
      "inputs": [
        {
          "indexed": true,
          "internalType": "address",
          "name": "from",
          "type": "address"
        },
        {
          "indexed": true,
          "internalType": "address",
          "name": "to",
          "type": "address"
        },
        {
          "indexed": true,
          "internalType": "uint256",
          "name": "tokenId",
          "type": "uint256"
        }
      ],
      "name": "Transfer",
      "type": "event"
    },
    {
      "inputs": [
        {
          "internalType": "address",
          "name": "to",
          "type": "address"
        },
        {
          "internalType": "uint256",
          "name": "tokenId",
          "type": "uint256"
        }
      ],
      "name": "approve",
      "outputs": [],
      "stateMutability": "nonpayable",
      "type": "function"
    },
    {
      "inputs": [
        {
          "internalType": "address",
          "name": "owner",
          "type": "address"
        }
      ],
      "name": "balanceOf",
      "outputs": [
        {
          "internalType": "uint256",
          "name": "",
          "type": "uint256"
        }
      ],
      "stateMutability": "view",
      "type": "function"
    },
    {
      "inputs": [],
      "name": "baseURI",
      "outputs": [
        {
          "internalType": "string",
          "name": "",
          "type": "string"
        }
      ],
      "stateMutability": "view",
      "type": "function"
    },
    {
      "inputs": [
        {
          "internalType": "uint256",
          "name": "tokenId",
          "type": "uint256"
        }
      ],
      "name": "burn",
      "outputs": [],
      "stateMutability": "nonpayable",
      "type": "function"
    },
    {
      "inputs": [
        {
          "internalType": "uint256",
          "name": "tokenId",
          "type": "uint256"
        }
      ],
      "name": "getApproved",
      "outputs": [
        {
          "internalType": "address",
          "name": "",
          "type": "address"
        }
      ],
      "stateMutability": "view",
      "type": "function"
    },
    {
      "inputs": [
        {
          "internalType": "address",
          "name": "owner",
          "type": "address"
        },
        {
          "internalType": "address",
          "name": "operator",
          "type": "address"
        }
      ],
      "name": "isApprovedForAll",
      "outputs": [
        {
          "internalType": "bool",
          "name": "",
          "type": "bool"
        }
      ],
      "stateMutability": "view",
      "type": "function"
    },
    {
      "inputs": [],
      "name": "maxSupply",
      "outputs": [
        {
          "internalType": "uint256",
          "name": "",
          "type": "uint256"
        }
      ],
      "stateMutability": "view",
      "type": "function"
    },
    {
      "inputs": [],
      "name": "mintingPaused",
      "outputs": [
        {
          "internalType": "bool",
          "name": "",
          "type": "bool"
        }
      ],
      "stateMutability": "view",
      "type": "function"
    },
    {
      "inputs": [],
      "name": "name",
      "outputs": [
        {
          "internalType": "string",
          "name": "",
          "type": "string"
        }
      ],
      "stateMutability": "view",
      "type": "function"
    },
    {
      "inputs": [],
      "name": "owner",
      "outputs": [
        {
          "internalType": "address",
          "name": "",
          "type": "address"
        }
      ],
      "stateMutability": "view",
      "type": "function"
    },
    {
      "inputs": [
        {
          "internalType": "uint256",
          "name": "tokenId",
          "type": "uint256"
        }
      ],
      "name": "ownerOf",
      "outputs": [
        {
          "internalType": "address",
          "name": "",
          "type": "address"
        }
      ],
      "stateMutability": "view",
      "type": "function"
    },
    {
      "inputs": [],
      "name": "pauseMinting",
      "outputs": [],
      "stateMutability": "nonpayable",
      "type": "function"
    },
    {
      "inputs": [],
      "name": "renounceOwnership",
      "outputs": [],
      "stateMutability": "nonpayable",
      "type": "function"
    },
    {
      "inputs": [
        {
          "internalType": "address",
          "name": "to",
          "type": "address"
        },
        {
          "internalType": "uint256",
          "name": "tokenId",
          "type": "uint256"
        }
      ],
      "name": "safeMint",
      "outputs": [],
      "stateMutability": "nonpayable",
      "type": "function"
    },
    {
      "inputs": [
        {
          "internalType": "address",
          "name": "from",
          "type": "address"
        },
        {
          "internalType": "address",
          "name": "to",
          "type": "address"
        },
        {
          "internalType": "uint256",
          "name": "tokenId",
          "type": "uint256"
        }
      ],
      "name": "safeTransferFrom",
      "outputs": [],
      "stateMutability": "nonpayable",
      "type": "function"
    },
    {
      "inputs": [
        {
          "internalType": "address",
          "name": "from",
          "type": "address"
        },
        {
          "internalType": "address",
          "name": "to",
          "type": "address"
        },
        {
          "internalType": "uint256",
          "name": "tokenId",
          "type": "uint256"
        },
        {
          "internalType": "bytes",
          "name": "data",
          "type": "bytes"
        }
      ],
      "name": "safeTransferFrom",
      "outputs": [],
      "stateMutability": "nonpayable",
      "type": "function"
    },
    {
      "inputs": [
        {
          "internalType": "address",
          "name": "operator",
          "type": "address"
        },
        {
          "internalType": "bool",
          "name": "approved",
          "type": "bool"
        }
      ],
      "name": "setApprovalForAll",
      "outputs": [],
      "stateMutability": "nonpayable",
      "type": "function"
    },
    {
      "inputs": [
        {
          "internalType": "string",
          "name": "newBaseURI",
          "type": "string"
        }
      ],
      "name": "setBaseURI",
      "outputs": [],
      "stateMutability": "nonpayable",
      "type": "function"
    },
    {
      "inputs": [
        {
          "internalType": "bytes4",
          "name": "interfaceId",
          "type": "bytes4"
        }
      ],
      "name": "supportsInterface",
      "outputs": [
        {
          "internalType": "bool",
          "name": "",
          "type": "bool"
        }
      ],
      "stateMutability": "view",
      "type": "function"
    },
    {
      "inputs": [],
      "name": "symbol",
      "outputs": [
        {
          "internalType": "string",
          "name": "",
          "type": "string"
        }
      ],
      "stateMutability": "view",
      "type": "function"
    },
    {
      "inputs": [
        {
          "internalType": "uint256",
          "name": "tokenId",
          "type": "uint256"
        }
      ],
      "name": "tokenURI",
      "outputs": [
        {
          "internalType": "string",
          "name": "",
          "type": "string"
        }
      ],
      "stateMutability": "view",
      "type": "function"
    },
    {
      "inputs": [],
      "name": "totalSupply",
      "outputs": [
        {
          "internalType": "uint256",
          "name": "",
          "type": "uint256"
        }
      ],
      "stateMutability": "view",
      "type": "function"
    },
    {
      "inputs": [
        {
          "internalType": "address",
          "name": "from",
          "type": "address"
        },
        {
          "internalType": "address",
          "name": "to",
          "type": "address"
        },
        {
          "internalType": "uint256",
          "name": "tokenId",
          "type": "uint256"
        }
      ],
      "name": "transferFrom",
      "outputs": [],
      "stateMutability": "nonpayable",
      "type": "function"
    },
    {
      "inputs": [
        {
          "internalType": "address",
          "name": "newOwner",
          "type": "address"
        }
      ],
      "name": "transferOwnership",
      "outputs": [],
      "stateMutability": "nonpayable",
      "type": "function"
    },
    {
      "inputs": [],
      "name": "unpauseMinting",
      "outputs": [],
      "stateMutability": "nonpayable",
      "type": "function"
    }
  ],
  "bytecode": "0x60a06040523480156200001157600080fd5b50604051620034a0380380620034a08339818101604052810190620000379190620003e5565b33848481600090816200004b9190620006f5565b5080600190816200005d9190620006f5565b505050600073ffffffffffffffffffffffffffffffffffffffff168173ffffffffffffffffffffffffffffffffffffffff1603620000d55760006040517f1e4fbdf7000000000000000000000000000000000000000000000000000000008152600401620000cc919062000821565b60405180910390fd5b620000e6816200015160201b60201c565b50600082116200012d576040517f08c379a000000000000000000000000000000000000000000000000000000000815260040162000124906200089f565b60405180910390fd5b81608081815250508060099081620001469190620006f5565b5050505050620008c1565b6000600660009054906101000a900473ffffffffffffffffffffffffffffffffffffffff16905081600660006101000a81548173ffffffffffffffffffffffffffffffffffffffff021916908373ffffffffffffffffffffffffffffffffffffffff1602179055508173ffffffffffffffffffffffffffffffffffffffff168173ffffffffffffffffffffffffffffffffffffffff167f8be0079c531659141344cd1fd0a4f28419497f9722a3daafe3b4186f6b6457e060405160405180910390a35050565b6000604051905090565b600080fd5b600080fd5b600080fd5b600080fd5b6000601f19601f8301169050919050565b7f4e487b7100000000000000000000000000000000000000000000000000000000600052604160045260246000fd5b620002808262000235565b810181811067ffffffffffffffff82111715620002a257620002a162000246565b5b80604052505050565b6000620002b762000217565b9050620002c5828262000275565b919050565b600067ffffffffffffffff821115620002e857620002e762000246565b5b620002f38262000235565b9050602081019050919050565b60005b838110156200032057808201518184015260208101905062000303565b60008484015250505050565b6000620003436200033d84620002ca565b620002ab565b90508281526020810184848401111562000362576200036162000230565b5b6200036f84828562000300565b509392505050565b600082601f8301126200038f576200038e6200022b565b5b8151620003a18482602086016200032c565b91505092915050565b6000819050919050565b620003bf81620003aa565b8114620003cb57600080fd5b50565b600081519050620003df81620003b4565b92915050565b6000806000806080858703121562000402576200040162000221565b5b600085015167ffffffffffffffff81111562000423576200042262000226565b5b620004318782880162000377565b945050602085015167ffffffffffffffff81111562000455576200045462000226565b5b620004638782880162000377565b93505060406200047687828801620003ce565b925050606085015167ffffffffffffffff8111156200049a576200049962000226565b5b620004a88782880162000377565b91505092959194509250565b600081519050919050565b7f4e487b7100000000000000000000000000000000000000000000000000000000600052602260045260246000fd5b600060028204905060018216806200050757607f821691505b6020821081036200051d576200051c620004bf565b5b50919050565b60008190508160005260206000209050919050565b60006020601f8301049050919050565b600082821b905092915050565b600060088302620005877fffffffffffffffffffffffffffffffffffffffffffffffffffffffffffffffff8262000548565b62000593868362000548565b95508019841693508086168417925050509392505050565b6000819050919050565b6000620005d6620005d0620005ca84620003aa565b620005ab565b620003aa565b9050919050565b6000819050919050565b620005f283620005b5565b6200060a6200060182620005dd565b84845462000555565b825550505050565b600090565b6200062162000612565b6200062e818484620005e7565b505050565b5b8181101562000656576200064a60008262000617565b60018101905062000634565b5050565b601f821115620006a5576200066f8162000523565b6200067a8462000538565b810160208510156200068a578190505b620006a2620006998562000538565b83018262000633565b50505b505050565b600082821c905092915050565b6000620006ca60001984600802620006aa565b1980831691505092915050565b6000620006e58383620006b7565b9150826002028217905092915050565b6200070082620004b4565b67ffffffffffffffff8111156200071c576200071b62000246565b5b620007288254620004ee565b620007358282856200065a565b600060209050601f8311600181146200076d576000841562000758578287015190505b620007648582620006d7565b865550620007d4565b601f1984166200077d8662000523565b60005b82811015620007a75784890151825560018201915060208501945060208101905062000780565b86831015620007c75784890151620007c3601f891682620006b7565b8355505b6001600288020188555050505b505050505050565b600073ffffffffffffffffffffffffffffffffffffffff82169050919050565b60006200080982620007dc565b9050919050565b6200081b81620007fc565b82525050565b600060208201905062000838600083018462000810565b92915050565b600082825260208201905092915050565b7f4d617820737570706c79206d757374206265203e203000000000000000000000600082015250565b6000620008876016836200083e565b915062000894826200084f565b602082019050919050565b60006020820190508181036000830152620008ba8162000878565b9050919050565b608051612bb5620008eb60003960008181610b0a01528181610b650152610cf40152612bb56000f3fe608060405234801561001057600080fd5b50600436106101735760003560e01c8063715018a6116100de578063b88d4fde11610097578063da8fbf2a11610071578063da8fbf2a14610410578063e1a283d61461041a578063e985e9c514610438578063f2fde38b1461046857610173565b8063b88d4fde146103a6578063c87b56dd146103c2578063d5abeb01146103f257610173565b8063715018a61461031e5780638da5cb5b1461032857806395d89b4114610346578063a144819414610364578063a22cb46514610380578063ae2003221461039c57610173565b806342842e0e1161013057806342842e0e1461024c57806342966c681461026857806355f804b3146102845780636352211e146102a05780636c0360eb146102d057806370a08231146102ee57610173565b806301ffc9a71461017857806306fdde03146101a8578063081812fc146101c6578063095ea7b3146101f657806318160ddd1461021257806323b872dd14610230575b600080fd5b610192600480360381019061018d9190611f77565b610484565b60405161019f9190611fbf565b60405180910390f35b6101b0610566565b6040516101bd919061206a565b60405180910390f35b6101e060048036038101906101db91906120c2565b6105f8565b6040516101ed9190612130565b60405180910390f35b610210600480360381019061020b9190612177565b610614565b005b61021a61062a565b60405161022791906121c6565b60405180910390f35b61024a600480360381019061024591906121e1565b610634565b005b610266600480360381019061026191906121e1565b610736565b005b610282600480360381019061027d91906120c2565b610756565b005b61029e60048036038101906102999190612299565b6107bc565b005b6102ba60048036038101906102b591906120c2565b610813565b6040516102c79190612130565b60405180910390f35b6102d8610825565b6040516102e5919061206a565b60405180910390f35b610308600480360381019061030391906122e6565b6108b7565b60405161031591906121c6565b60405180910390f35b610326610971565b005b610330610985565b60405161033d9190612130565b60405180910390f35b61034e6109af565b60405161035b919061206a565b60405180910390f35b61037e60048036038101906103799190612177565b610a41565b005b61039a6004803603810190610395919061233f565b610be6565b005b6103a4610bfc565b005b6103c060048036038101906103bb91906124af565b610c64565b005b6103dc60048036038101906103d791906120c2565b610c89565b6040516103e9919061206a565b60405180910390f35b6103fa610cf2565b60405161040791906121c6565b60405180910390f35b610418610d16565b005b610422610d7e565b60405161042f9190611fbf565b60405180910390f35b610452600480360381019061044d9190612532565b610d91565b60405161045f9190611fbf565b60405180910390f35b610482600480360381019061047d91906122e6565b610e25565b005b60007f80ac58cd000000000000000000000000000000000000000000000000000000007bffffffffffffffffffffffffffffffffffffffffffffffffffffffff1916827bffffffffffffffffffffffffffffffffffffffffffffffffffffffff1916148061054f57507f5b5e139f000000000000000000000000000000000000000000000000000000007bffffffffffffffffffffffffffffffffffffffffffffffffffffffff1916827bffffffffffffffffffffffffffffffffffffffffffffffffffffffff1916145b8061055f575061055e82610eab565b5b9050919050565b606060008054610575906125a1565b80601f01602080910402602001604051908101604052809291908181526020018280546105a1906125a1565b80156105ee5780601f106105c3576101008083540402835291602001916105ee565b820191906000526020600020905b8154815290600101906020018083116105d157829003601f168201915b5050505050905090565b600061060382610f15565b5061060d82610f9d565b9050919050565b6106268282610621610fda565b610fe2565b5050565b6000600754905090565b600073ffffffffffffffffffffffffffffffffffffffff168273ffffffffffffffffffffffffffffffffffffffff16036106a65760006040517f64a0ae9200000000000000000000000000000000000000000000000000000000815260040161069d9190612130565b60405180910390fd5b60006106ba83836106b5610fda565b610ff4565b90508373ffffffffffffffffffffffffffffffffffffffff168173ffffffffffffffffffffffffffffffffffffffff1614610730578382826040517f64283d7b000000000000000000000000000000000000000000000000000000008152600401610727939291906125d2565b60405180910390fd5b50505050565b61075183838360405180602001604052806000815250610c64565b505050565b610760338261120e565b610796576040517f99b2a73600000000000000000000000000000000000000000000000000000000815260040160405180910390fd5b61079f816112a3565b6001600760008282546107b29190612638565b9250508190555050565b6107c4611329565b8181600991826107d5929190612823565b507f6741b2fc379fad678116fe3d4d4b9a1a184ab53ba36b86ad0fa66340b1ab41ad8282604051610807929190612920565b60405180910390a15050565b600061081e82610f15565b9050919050565b606060098054610834906125a1565b80601f0160208091040260200160405190810160405280929190818152602001828054610860906125a1565b80156108ad5780601f10610882576101008083540402835291602001916108ad565b820191906000526020600020905b81548152906001019060200180831161089057829003601f168201915b5050505050905090565b60008073ffffffffffffffffffffffffffffffffffffffff168273ffffffffffffffffffffffffffffffffffffffff160361092a5760006040517f89c62b640000000000000000000000000000000000000000000000000000000081526004016109219190612130565b60405180910390fd5b600360008373ffffffffffffffffffffffffffffffffffffffff1673ffffffffffffffffffffffffffffffffffffffff168152602001908152602001600020549050919050565b610979611329565b61098360006113b0565b565b6000600660009054906101000a900473ffffffffffffffffffffffffffffffffffffffff16905090565b6060600180546109be906125a1565b80601f01602080910402602001604051908101604052809291908181526020018280546109ea906125a1565b8015610a375780601f10610a0c57610100808354040283529160200191610a37565b820191906000526020600020905b815481529060010190602001808311610a1a57829003601f168201915b5050505050905090565b610a49611329565b600860009054906101000a900460ff1615610a8f576040517e7c3ae000000000000000000000000000000000000000000000000000000000815260040160405180910390fd5b600073ffffffffffffffffffffffffffffffffffffffff168273ffffffffffffffffffffffffffffffffffffffff1603610afe576040517f08c379a0000000000000000000000000000000000000000000000000000000008152600401610af590612990565b60405180910390fd5b6000811480610b2c57507f000000000000000000000000000000000000000000000000000000000000000081115b15610b63576040517f3f6cc76800000000000000000000000000000000000000000000000000000000815260040160405180910390fd5b7f000000000000000000000000000000000000000000000000000000000000000060075410610bbe576040517fd05cb60900000000000000000000000000000000000000000000000000000000815260040160405180910390fd5b600160076000828254610bd191906129b0565b92505081905550610be28282611476565b5050565b610bf8610bf1610fda565b8383611494565b5050565b610c04611329565b6000600860006101000a81548160ff0219169083151502179055503373ffffffffffffffffffffffffffffffffffffffff167fd772a9007742ba57886abe6ba82f5094ce4eaa4c1564be00395e5eb5cbc1298d60405160405180910390a2565b610c6f848484610634565b610c83610c7a610fda565b85858585611603565b50505050565b6060610c9482610f15565b506000610c9f6117b4565b90506000815111610cbf5760405180602001604052806000815250610cea565b80610cc984611846565b604051602001610cda929190612a20565b6040516020818303038152906040525b915050919050565b7f000000000000000000000000000000000000000000000000000000000000000081565b610d1e611329565b6001600860006101000a81548160ff0219169083151502179055503373ffffffffffffffffffffffffffffffffffffffff167f35365f539a67058ad0735a24a50fe45b0ee05207919e9f4a2f60d855f55e0c0e60405160405180910390a2565b600860009054906101000a900460ff1681565b6000600560008473ffffffffffffffffffffffffffffffffffffffff1673ffffffffffffffffffffffffffffffffffffffff16815260200190815260200160002060008373ffffffffffffffffffffffffffffffffffffffff1673ffffffffffffffffffffffffffffffffffffffff16815260200190815260200160002060009054906101000a900460ff16905092915050565b610e2d611329565b600073ffffffffffffffffffffffffffffffffffffffff168173ffffffffffffffffffffffffffffffffffffffff1603610e9f5760006040517f1e4fbdf7000000000000000000000000000000000000000000000000000000008152600401610e969190612130565b60405180910390fd5b610ea8816113b0565b50565b60007f01ffc9a7000000000000000000000000000000000000000000000000000000007bffffffffffffffffffffffffffffffffffffffffffffffffffffffff1916827bffffffffffffffffffffffffffffffffffffffffffffffffffffffff1916149050919050565b600080610f2183611914565b9050600073ffffffffffffffffffffffffffffffffffffffff168173ffffffffffffffffffffffffffffffffffffffff1603610f9457826040517f7e273289000000000000000000000000000000000000000000000000000000008152600401610f8b91906121c6565b60405180910390fd5b80915050919050565b60006004600083815260200190815260200160002060009054906101000a900473ffffffffffffffffffffffffffffffffffffffff169050919050565b600033905090565b610fef8383836001611951565b505050565b60008061100084611914565b9050600073ffffffffffffffffffffffffffffffffffffffff168373ffffffffffffffffffffffffffffffffffffffff161461104257611041818486611b16565b5b600073ffffffffffffffffffffffffffffffffffffffff168173ffffffffffffffffffffffffffffffffffffffff16146110d357611084600085600080611951565b6001600360008373ffffffffffffffffffffffffffffffffffffffff1673ffffffffffffffffffffffffffffffffffffffff168152602001908152602001600020600082825403925050819055505b600073ffffffffffffffffffffffffffffffffffffffff168573ffffffffffffffffffffffffffffffffffffffff1614611156576001600360008773ffffffffffffffffffffffffffffffffffffffff1673ffffffffffffffffffffffffffffffffffffffff168152602001908152602001600020600082825401925050819055505b846002600086815260200190815260200160002060006101000a81548173ffffffffffffffffffffffffffffffffffffffff021916908373ffffffffffffffffffffffffffffffffffffffff160217905550838573ffffffffffffffffffffffffffffffffffffffff168273ffffffffffffffffffffffffffffffffffffffff167fddf252ad1be2c89b69c2b068fc378daa952ba7f163c4a11628f55a4df523b3ef60405160405180910390a4809150509392505050565b60008061121a83610813565b90508073ffffffffffffffffffffffffffffffffffffffff168473ffffffffffffffffffffffffffffffffffffffff16148061128957508373ffffffffffffffffffffffffffffffffffffffff16611271846105f8565b73ffffffffffffffffffffffffffffffffffffffff16145b8061129a57506112998185610d91565b5b91505092915050565b60006112b26000836000610ff4565b9050600073ffffffffffffffffffffffffffffffffffffffff168173ffffffffffffffffffffffffffffffffffffffff160361132557816040517f7e27328900000000000000000000000000000000000000000000000000000000815260040161131c91906121c6565b60405180910390fd5b5050565b611331610fda565b73ffffffffffffffffffffffffffffffffffffffff1661134f610985565b73ffffffffffffffffffffffffffffffffffffffff16146113ae57611372610fda565b6040517f118cdaa70000000000000000000000000000000000000000000000000000000081526004016113a59190612130565b60405180910390fd5b565b6000600660009054906101000a900473ffffffffffffffffffffffffffffffffffffffff16905081600660006101000a81548173ffffffffffffffffffffffffffffffffffffffff021916908373ffffffffffffffffffffffffffffffffffffffff1602179055508173ffffffffffffffffffffffffffffffffffffffff168173ffffffffffffffffffffffffffffffffffffffff167f8be0079c531659141344cd1fd0a4f28419497f9722a3daafe3b4186f6b6457e060405160405180910390a35050565b611490828260405180602001604052806000815250611bda565b5050565b600073ffffffffffffffffffffffffffffffffffffffff168273ffffffffffffffffffffffffffffffffffffffff160361150557816040517f5b08ba180000000000000000000000000000000000000000000000000000000081526004016114fc9190612130565b60405180910390fd5b80600560008573ffffffffffffffffffffffffffffffffffffffff1673ffffffffffffffffffffffffffffffffffffffff16815260200190815260200160002060008473ffffffffffffffffffffffffffffffffffffffff1673ffffffffffffffffffffffffffffffffffffffff16815260200190815260200160002060006101000a81548160ff0219169083151502179055508173ffffffffffffffffffffffffffffffffffffffff168373ffffffffffffffffffffffffffffffffffffffff167f17307eab39ab6107e8899845ad3d59bd9653f200f220920489ca2b5937696c31836040516115f69190611fbf565b60405180910390a3505050565b60008373ffffffffffffffffffffffffffffffffffffffff163b11156117ad578273ffffffffffffffffffffffffffffffffffffffff1663150b7a02868685856040518563ffffffff1660e01b81526004016116629493929190612a99565b6020604051808303816000875af192505050801561169e57506040513d601f19601f8201168201806040525081019061169b9190612afa565b60015b611722573d80600081146116ce576040519150601f19603f3d011682016040523d82523d6000602084013e6116d3565b606091505b50600081510361171a57836040517f64a0ae920000000000000000000000000000000000000000000000000000000081526004016117119190612130565b60405180910390fd5b805160208201fd5b63150b7a0260e01b7bffffffffffffffffffffffffffffffffffffffffffffffffffffffff1916817bffffffffffffffffffffffffffffffffffffffffffffffffffffffff1916146117ab57836040517f64a0ae920000000000000000000000000000000000000000000000000000000081526004016117a29190612130565b60405180910390fd5b505b5050505050565b6060600980546117c3906125a1565b80601f01602080910402602001604051908101604052809291908181526020018280546117ef906125a1565b801561183c5780601f106118115761010080835404028352916020019161183c565b820191906000526020600020905b81548152906001019060200180831161181f57829003601f168201915b5050505050905090565b60606000600161185584611bfe565b01905060008167ffffffffffffffff81111561187457611873612384565b5b6040519080825280601f01601f1916602001820160405280156118a65781602001600182028036833780820191505090505b509050600082602083010190505b600115611909578080600190039150507f3031323334353637383961626364656600000000000000000000000000000000600a86061a8153600a85816118fd576118fc612b27565b5b049450600085036118b4575b819350505050919050565b60006002600083815260200190815260200160002060009054906101000a900473ffffffffffffffffffffffffffffffffffffffff169050919050565b808061198a5750600073ffffffffffffffffffffffffffffffffffffffff168273ffffffffffffffffffffffffffffffffffffffff1614155b15611abe57600061199a84610f15565b9050600073ffffffffffffffffffffffffffffffffffffffff168373ffffffffffffffffffffffffffffffffffffffff1614158015611a0557508273ffffffffffffffffffffffffffffffffffffffff168173ffffffffffffffffffffffffffffffffffffffff1614155b8015611a185750611a168184610d91565b155b15611a5a57826040517fa9fbf51f000000000000000000000000000000000000000000000000000000008152600401611a519190612130565b60405180910390fd5b8115611abc57838573ffffffffffffffffffffffffffffffffffffffff168273ffffffffffffffffffffffffffffffffffffffff167f8c5be1e5ebec7d5bd14f71427d1e84f3dd0314c0f7b2291e5b200ac8c7c3b92560405160405180910390a45b505b836004600085815260200190815260200160002060006101000a81548173ffffffffffffffffffffffffffffffffffffffff021916908373ffffffffffffffffffffffffffffffffffffffff16021790555050505050565b611b21838383611d51565b611bd557600073ffffffffffffffffffffffffffffffffffffffff168373ffffffffffffffffffffffffffffffffffffffff1603611b9657806040517f7e273289000000000000000000000000000000000000000000000000000000008152600401611b8d91906121c6565b60405180910390fd5b81816040517f177e802f000000000000000000000000000000000000000000000000000000008152600401611bcc929190612b56565b60405180910390fd5b505050565b611be48383611e12565b611bf9611bef610fda565b6000858585611603565b505050565b600080600090507a184f03e93ff9f4daa797ed6e38ed64bf6a1f0100000000000000008310611c5c577a184f03e93ff9f4daa797ed6e38ed64bf6a1f0100000000000000008381611c5257611c51612b27565b5b0492506040810190505b6d04ee2d6d415b85acef81000000008310611c99576d04ee2d6d415b85acef81000000008381611c8f57611c8e612b27565b5b0492506020810190505b662386f26fc100008310611cc857662386f26fc100008381611cbe57611cbd612b27565b5b0492506010810190505b6305f5e1008310611cf1576305f5e1008381611ce757611ce6612b27565b5b0492506008810190505b6127108310611d16576127108381611d0c57611d0b612b27565b5b0492506004810190505b60648310611d395760648381611d2f57611d2e612b27565b5b0492506002810190505b600a8310611d48576001810190505b80915050919050565b60008073ffffffffffffffffffffffffffffffffffffffff168373ffffffffffffffffffffffffffffffffffffffff1614158015611e0957508273ffffffffffffffffffffffffffffffffffffffff168473ffffffffffffffffffffffffffffffffffffffff161480611dca5750611dc98484610d91565b5b80611e0857508273ffffffffffffffffffffffffffffffffffffffff16611df083610f9d565b73ffffffffffffffffffffffffffffffffffffffff16145b5b90509392505050565b600073ffffffffffffffffffffffffffffffffffffffff168273ffffffffffffffffffffffffffffffffffffffff1603611e845760006040517f64a0ae92000000000000000000000000000000000000000000000000000000008152600401611e7b9190612130565b60405180910390fd5b6000611e9283836000610ff4565b9050600073ffffffffffffffffffffffffffffffffffffffff168173ffffffffffffffffffffffffffffffffffffffff1614611f065760006040517f73c6ac6e000000000000000000000000000000000000000000000000000000008152600401611efd9190612130565b60405180910390fd5b505050565b6000604051905090565b600080fd5b600080fd5b60007fffffffff0000000000000000000000000000000000000000000000000000000082169050919050565b611f5481611f1f565b8114611f5f57600080fd5b50565b600081359050611f7181611f4b565b92915050565b600060208284031215611f8d57611f8c611f15565b5b6000611f9b84828501611f62565b91505092915050565b60008115159050919050565b611fb981611fa4565b82525050565b6000602082019050611fd46000830184611fb0565b92915050565b600081519050919050565b600082825260208201905092915050565b60005b83811015612014578082015181840152602081019050611ff9565b60008484015250505050565b6000601f19601f8301169050919050565b600061203c82611fda565b6120468185611fe5565b9350612056818560208601611ff6565b61205f81612020565b840191505092915050565b600060208201905081810360008301526120848184612031565b905092915050565b6000819050919050565b61209f8161208c565b81146120aa57600080fd5b50565b6000813590506120bc81612096565b92915050565b6000602082840312156120d8576120d7611f15565b5b60006120e6848285016120ad565b91505092915050565b600073ffffffffffffffffffffffffffffffffffffffff82169050919050565b600061211a826120ef565b9050919050565b61212a8161210f565b82525050565b60006020820190506121456000830184612121565b92915050565b6121548161210f565b811461215f57600080fd5b50565b6000813590506121718161214b565b92915050565b6000806040838503121561218e5761218d611f15565b5b600061219c85828601612162565b92505060206121ad858286016120ad565b9150509250929050565b6121c08161208c565b82525050565b60006020820190506121db60008301846121b7565b92915050565b6000806000606084860312156121fa576121f9611f15565b5b600061220886828701612162565b935050602061221986828701612162565b925050604061222a868287016120ad565b9150509250925092565b600080fd5b600080fd5b600080fd5b60008083601f84011261225957612258612234565b5b8235905067ffffffffffffffff81111561227657612275612239565b5b6020830191508360018202830111156122925761229161223e565b5b9250929050565b600080602083850312156122b0576122af611f15565b5b600083013567ffffffffffffffff8111156122ce576122cd611f1a565b5b6122da85828601612243565b92509250509250929050565b6000602082840312156122fc576122fb611f15565b5b600061230a84828501612162565b91505092915050565b61231c81611fa4565b811461232757600080fd5b50565b60008135905061233981612313565b92915050565b6000806040838503121561235657612355611f15565b5b600061236485828601612162565b92505060206123758582860161232a565b9150509250929050565b600080fd5b7f4e487b7100000000000000000000000000000000000000000000000000000000600052604160045260246000fd5b6123bc82612020565b810181811067ffffffffffffffff821117156123db576123da612384565b5b80604052505050565b60006123ee611f0b565b90506123fa82826123b3565b919050565b600067ffffffffffffffff82111561241a57612419612384565b5b61242382612020565b9050602081019050919050565b82818337600083830152505050565b600061245261244d846123ff565b6123e4565b90508281526020810184848401111561246e5761246d61237f565b5b612479848285612430565b509392505050565b600082601f83011261249657612495612234565b5b81356124a684826020860161243f565b91505092915050565b600080600080608085870312156124c9576124c8611f15565b5b60006124d787828801612162565b94505060206124e887828801612162565b93505060406124f9878288016120ad565b925050606085013567ffffffffffffffff81111561251a57612519611f1a565b5b61252687828801612481565b91505092959194509250565b6000806040838503121561254957612548611f15565b5b600061255785828601612162565b925050602061256885828601612162565b9150509250929050565b7f4e487b7100000000000000000000000000000000000000000000000000000000600052602260045260246000fd5b600060028204905060018216806125b957607f821691505b6020821081036125cc576125cb612572565b5b50919050565b60006060820190506125e76000830186612121565b6125f460208301856121b7565b6126016040830184612121565b949350505050565b7f4e487b7100000000000000000000000000000000000000000000000000000000600052601160045260246000fd5b60006126438261208c565b915061264e8361208c565b925082820390508181111561266657612665612609565b5b92915050565b600082905092915050565b60008190508160005260206000209050919050565b60006020601f8301049050919050565b600082821b905092915050565b6000600883026126d97fffffffffffffffffffffffffffffffffffffffffffffffffffffffffffffffff8261269c565b6126e3868361269c565b95508019841693508086168417925050509392505050565b6000819050919050565b600061272061271b6127168461208c565b6126fb565b61208c565b9050919050565b6000819050919050565b61273a83612705565b61274e61274682612727565b8484546126a9565b825550505050565b600090565b612763612756565b61276e818484612731565b505050565b5b818110156127925761278760008261275b565b600181019050612774565b5050565b601f8211156127d7576127a881612677565b6127b18461268c565b810160208510156127c0578190505b6127d46127cc8561268c565b830182612773565b50505b505050565b600082821c905092915050565b60006127fa600019846008026127dc565b1980831691505092915050565b600061281383836127e9565b9150826002028217905092915050565b61282d838361266c565b67ffffffffffffffff81111561284657612845612384565b5b61285082546125a1565b61285b828285612796565b6000601f83116001811461288a5760008415612878578287013590505b6128828582612807565b8655506128ea565b601f19841661289886612677565b60005b828110156128c05784890135825560018201915060208501945060208101905061289b565b868310156128dd57848901356128d9601f8916826127e9565b8355505b6001600288020188555050505b50505050505050565b60006128ff8385611fe5565b935061290c838584612430565b61291583612020565b840190509392505050565b6000602082019050818103600083015261293b8184866128f3565b90509392505050565b7f4d696e7420746f207a65726f2061646472657373000000000000000000000000600082015250565b600061297a601483611fe5565b915061298582612944565b602082019050919050565b600060208201905081810360008301526129a98161296d565b9050919050565b60006129bb8261208c565b91506129c68361208c565b92508282019050808211156129de576129dd612609565b5b92915050565b600081905092915050565b60006129fa82611fda565b612a0481856129e4565b9350612a14818560208601611ff6565b80840191505092915050565b6000612a2c82856129ef565b9150612a3882846129ef565b91508190509392505050565b600081519050919050565b600082825260208201905092915050565b6000612a6b82612a44565b612a758185612a4f565b9350612a85818560208601611ff6565b612a8e81612020565b840191505092915050565b6000608082019050612aae6000830187612121565b612abb6020830186612121565b612ac860408301856121b7565b8181036060830152612ada8184612a60565b905095945050505050565b600081519050612af481611f4b565b92915050565b600060208284031215612b1057612b0f611f15565b5b6000612b1e84828501612ae5565b91505092915050565b7f4e487b7100000000000000000000000000000000000000000000000000000000600052601260045260246000fd5b6000604082019050612b6b6000830185612121565b612b7860208301846121b7565b939250505056fea26469706673582212207fb2a7011041169acc29d449c833615de2444895ac2bc059f306f011ff2c14f664736f6c63430008140033",
  "linkReferences": {},
  "deployedLinkReferences": {}
}